:020000040000FA
:100000003DEF22F0C96E120017EF18F0A3EC06F0D6
:1000100067EC1AF0FDD71200C0EF1CF0D9CFE5FF56
:10002000E1CFD9FF00C0E5FF01C0E5FF02C0E5FF59
:1000300003C0E5FF04C0E5FF05C0E5FF06C0E5FF1E
:1000400007C0E5FF08C0E5FF09C0E5FF0AC0E5FFFE
:100050000BC0E5FF0CC0E5FF0DC0E5FF0EC0E5FFDE
:100060000FC0E5FF10C0E5FF11C0E5FF12C0E5FFBE
:1000700013C0E5FF14C0E5FF15C0E5FF16C0E5FF9E
:1000800017C0E5FF18C0E5FF19C0E5FF1AC0E5FF7E
:100090001BC0E5FF1CC0E5FF1DC0E5FF1EC0E5FF5E
:1000A000020EDBCF00F0030EDBCF01F0040EDBCF3E
:1000B00002F0050EDBCF03F0060EDBCF04F0070ED7
:1000C000DBCF05F0080EDBCF06F0090EDBCF07F023
:1000D0000A0EDBCF08F0096A0A6A02C00DF00D5063
:1000E000800A0DE102500301576F0150566F005016
:1000F000556F030E016E550E006E800E026E03C02A
:10010000E9FF04C0F3FF055087EC22F00B6E0B50A3
:10011000D8B4C4EF03F00B50250A02E0ABEF03F0B4
:100120000C6A0D6A0E6A0F6A106A0A0E116E126A64
:10013000136A146A200E156E1668176A2B0E186E55
:10014000032A02E3044A052A03C0E9FF04C0F3FFBF
:10015000055087EC22F0196E250A13E11950E56E5F
:100160000250E56E0150E56E0050E56E24EC14F08F
:10017000040EE126094A0A2A032A02E3044A052A50
:10018000BED71950300A06E1300E156E032A02E37D
:10019000044A052A03C0E9FF04C0F3FF055087ECB9
:1001A00022F02D0A06E1010E146E032A02E3044A2E
:1001B000052A03C0E9FF04C0F3FF055087EC22F0D5
:1001C000200A08E1010E176E200E186E032A02E3C2
:1001D000044A052A03C0E9FF04C0F3FF055087EC79
:1001E00022F02B0A06E1010E176E032A02E3044AED
:1001F000052A03C0E9FF04C0F3FF055087EC22F095
:10020000196E310E195C2BE33A0E195C28E203C01B
:1002100019F004C01AF005C01BF019C0E9FF1AC09C
:10022000F3FF1B5087EC22F01C6E300E1C5C11E3B8
:100230003A0E1C5C0EE213500A0DF3CF1DF01C5059
:100240001D26D00E1D24136E192A02E31A4A1B2AFA
:10025000E4D719C003F01AC004F01BC005F003C0B6
:10026000E9FF04C0F3FF055087EC22F02E0A2DE1D0
:10027000032A02E3044A052A166A03C019F004C0DF
:100280001AF005C01BF019C0E9FF1AC0F3FF1B509C
:1002900087EC22F01C6E300E1C5C11E33A0E1C5CE5
:1002A0000EE216500A0DF3CF1DF01C501D26D00E85
:1002B0001D24166E192A02E31A4A1B2AE4D719C014
:1002C00003F01AC004F01BC005F003C0E9FF04C02E
:1002D000F3FF055087EC22F0196E6C0A07E1010E5E
:1002E0000C6E032A02E3044A052A09D01950680A51
:1002F00006E1010E0E6E032A02E3044A052A03C03A
:10030000E9FF04C0F3FF055087EC22F0750A06E10F
:10031000010E106E032A02E3044A052A03C0E9FF16
:1003200004C0F3FF055087EC22F0196E730A05E153
:10033000010E0D6E200E156E3FD01950780A03E1A4
:10034000100E116E39D01950580A05E1100E116EB9
:10035000010E126E31D01950630A02E1116A2CD0DD
:1003600019506F0A03E1080E116E26D01950660A63
:1003700003E1010E0F6E20D01950640A1DE01950E0
:10038000690A1AE0105005E0FF0E03260422052238
:1003900013D01950E56E0250E56E0150E56E005025
:1003A000E56E24EC14F0040EE126094A0A2A032A19
:1003B00002E3044A052AA3D60D5021E00650030F9C
:1003C0000D6E000E0720196E000E08201A6E0DC06B
:1003D00006F019C007F01AC008F0FD0E0D26FF0E3A
:1003E00019221A220DC0E9FF19C0F3FF1A5052EC6E
:1003F00021F00D6EF3CF19F0F4CF1AF0FDD00F50AD
:100400000DE0000E1A6E080E196E100E0D6E040E21
:100410000626000E072208221668EED016680C5039
:1004200023E00650040F0C6E000E07200F6E000E26
:1004300008201B6E0CC006F00FC007F01BC008F0B0
:10044000FC0E0C26FF0E0F221B220CC0E9FF0FC072
:10045000F3FF1B50BBEC20F00C6EF3CF0FF0F4CF8A
:100460001BF0E9CF1CF067D00E502FE00650020FB2
:100470000E6E000E07201D6E000E08201E6E0EC0B0
:1004800006F01DC007F01EC008F0FE0E0E26FF0E7F
:100490001D221E220EC0E9FF1DC0F3FF1E5011ECED
:1004A00022F00E6E0EC00CF00F6A1B6A1C6A11500F
:1004B0000A0A03E11050D8B43ED00C500E6E0EC0A4
:1004C0000CF00F6A1B6A1C6A36D00650020F0E6EC3
:1004D000000E07201D6E000E08201E6E0EC006F0D6
:1004E0001DC007F01EC008F0FE0E0E26FF0E1D22D6
:1004F0001E220EC0E9FF1DC0F3FF1E5011EC22F0BA
:100500000E6EF3CF1DF00EC00CF01DC00FF0E86AA8
:100510001DBEFF0E1B6E1C6E11500A0A02E1105028
:100520000AE00C500E6E0F501D6E0EC00CF01DC078
:100530000FF01B6A1C6A040E196EF40E0D6E800E0D
:100540001A6E1150D8B440D0105013E01150E56E1F
:10055000040EE56EF40EE56E1C50E56E1B50E56E64
:100560000F50E56E0C50E56EB7EC0FF0070EE1266C
:1005700012D01150E56E040EE56EF40EE56E1C50BF
:10058000E56E1B50E56E0F50E56E0C50E56E55ECB8
:1005900019F0070EE12617502FE00DC0E9FF19C032
:1005A000F3FF1A5087EC22F02D0A26E0FF0E0D26ED
:1005B00019221A2218C0E5FF0DC0E9FF19C0F3FF88
:1005C0001A500EEC23F018D00CC0E5FF0DC0E9FF67
:1005D00019C0F3FF1A500EEC23F00D50010F0C6EF2
:1005E000000E19200E6E000E1A20E56A0CC0E9FFFD
:1005F0000EC0F3FF0EEC23F00DC00CF019C00EF08E
:100600001AC00FF013C010F0105010E00CC0E9FF3A
:100610000EC0F3FF0F5087EC22F0176E175006E064
:100620000C2A02E30E4A0F2A1006EED710C013F070
:1006300014501EE109C00CF00AC00EF010C00FF0FB
:100640000F5010E01550E56E0250E56E0150E56E5A
:100650000050E56E24EC14F0040EE1260C4A0E2A3C
:100660000F06EED70CC009F00EC00AF00FC013F051
:1006700016C00CF00DC00DF019C00EF01AC00FF02E
:1006800009C010F00AC015F00DC0E9FF0EC0F3FF5D
:100690000F5087EC22F0166E1650D8B43ED00CC026
:1006A00016F0176A161E171E1650171005E00CC01C
:1006B00016F00C06165031E00DC0E9FF0EC0F3FF36
:1006C0000F5087EC22F0116E125010E01150E56EC1
:1006D000CEEC21F0166EE652165004E0DF0E111437
:1006E000166E02D011C016F016C011F01150E56E52
:1006F0000250E56E0150E56E0050E56E24EC14F0FA
:10070000040EE1260D2A02E30E4A0F2A104A152A8A
:100710001350D8B4B9D71306B7D710C009F015C015
:100720000AF014502BE010C00CF015C00DF013C0EF
:100730000EF00E501FE0200EE56E0250E56E0150E7
:10074000E56E0050E56E24EC14F0040EE1260C4A30
:100750000D2A0E06EED70B50E56E0250E56E0150E5
:10076000E56E0050E56E24EC14F0040EE126094A13
:100770000A2A04D00CC009F00DC00AF0032A02E3D3
:10078000044A052A7FEF00F00AC0F3FF0950E4CFC6
:100790001EF0E4CF1DF0E4CF1CF0E4CF1BF0E4CF5B
:1007A0001AF0E4CF19F0E4CF18F0E4CF17F0E4CF5B
:1007B00016F0E4CF15F0E4CF14F0E4CF13F0E4CF5B
:1007C00012F0E4CF11F0E4CF10F0E4CF0FF0E4CF5B
:1007D0000EF0E4CF0DF0E4CF0CF0E4CF0BF0E4CF5B
:1007E0000AF0E4CF09F0E4CF08F0E4CF07F0E4CF5B
:1007F00006F0E4CF05F0E4CF04F0E4CF03F0E4CF5B
:1008000002F0E4CF01F0E4CF00F0E4CFD9FF120012
:100810003C4E4F20464C4F41543E000000C0E5FF87
:1008200001C0E5FF02C0E5FF03C0E5FF04C0E5FF2E
:1008300005C0E5FF06C0E5FF07C0E5FF08C0E5FF0E
:10084000C2A204D003012C5190EF06F003012D51F8
:10085000D8B438D103012C51020DF450016EF3CFFE
:1008600000F0E00E0026000E012200C0E9FF01C0EA
:10087000EAFFEECF00F0EFCF01F0230E2C25026E41
:10088000036A040E032202C0E9FF03C0EAFFEFCFB0
:1008900002F00250FF0A01E16DD009C0E5FFF2CF7E
:1008A00009F0F29E02380F0B046E920E0424056EBE
:1008B000066A0F0E0622076A920E04260F0E072202
:1008C00004C0E9FF07C0EAFFEFCF04F00250076E53
:1008D000070E0716010E086E07500DE006E6E86CDD
:1008E000D8900836010FFDE306D0D89008BED88016
:1008F0000832010FFBE3081C076E0450071605C001
:10090000E9FF06C0EAFF07C0EFFF02380F0B046ED5
:10091000890E0424056E066A0F0E0622076A890EE8
:1009200004260F0E072204C0E9FF07C0EAFFEFCF3D
:1009300004F0070E0216010E076E02500DE006E6E7
:10094000E86CD8900736010FFDE306D0D89007BEBB
:10095000D8800732010FFBE3071C026E0450021619
:1009600005C0E9FF06C0EAFF02C0EFFF09BEF28E34
:10097000E4CF09F003012C51020DF450036EF3CFC4
:1009800002F0E00E0226000E032200380F0B046E68
:100990000138056EF00B051A042605320432F80EF4
:1009A00005B405260450005C046E05500158056E20
:1009B000C3CF00F0016A0050042601500522C4CFC5
:1009C00000F0016A0050076E066A065004260750C0
:1009D000052202C0E9FF03C0EAFF04C0EEFF05C024
:1009E000EFFF03012851010A01E06AD003012C51F5
:1009F000020DF450016EF3CF00F0E00E0024026E01
:100A0000000E0120036E02C0E9FF03C0EAFFEECF33
:100A100002F0EFCF03F0930E0026040E012200C077
:100A2000E9FF01C0EAFFEECF04F0EFCF05F09C0E26
:100A30000426D8A005060350800FF36E0550800FE2
:100A4000F35C02E10450025C0EE20250640F046E9B
:100A5000000E0320056E00C0E9FF01C0EAFF04C0DC
:100A6000EEFF05C0EFFF03012C51020DF450016EA3
:100A7000F3CF00F0B30E0026040E012200C0E9FF00
:100A800001C0EAFFEECF04F0EFCF05F0640E0426BC
:100A9000D8B0052A0550800FF36E0350800FF35C29
:100AA00002E10250045C0CE29C0E0226D8A0030670
:100AB00000C0E9FF01C0EAFF02C0EEFF03C0EFFF84
:100AC00003012D6B03012C2B100E2C5DD8B02C6B69
:100AD0002C39E8441F0B006E016A5A0E0026030EE3
:100AE000012200C0E9FF01C0EAFFEFCF00F02CC3F4
:100AF00001F0070E0116010E026E000E036E01508A
:100B000006E0E86CD89002360336010FFCE3046A75
:100B1000005002160450031602500310D880E866F5
:100B2000D890026A02360250D8A4F8D0230E0301EE
:100B30002C25006E016A0F0E012200C0E9FF01C0E2
:100B4000EAFFEFCF00F00044E844FC0B016E0128FF
:100B5000C26E230E2C25006E016A040E012200C015
:100B6000E9FF01C0EAFFEFCF00F00050FF0A01E10A
:100B7000D1D009C0E5FFF2CF09F0F29E00380F0B8B
:100B8000026E920E0224036E046A0F0E0422056A9E
:100B9000920E02260F0E052202C0E9FF05C0EAFFF1
:100BA000EFCF02F00050056E070E0516010E066E1F
:100BB00005500DE006E6E86CD8900636010FFDE31F
:100BC00006D0D89006BED8800632010FFBE3025053
:100BD000061203C0E9FF04C0EAFF06C0EFFF09BE2A
:100BE000F28EE4CF09F0380E016E0F0E026E00385F
:100BF0000F0B036E046A0350012604500222380EC4
:100C0000056E0F0E066E055003260650042203C023
:100C1000E9FF04C0EAFFEFCF03F0070E0016010E54
:100C2000046E00500DE006E6E86CD8900436010F23
:100C3000FDE306D0D89004BED8800432010FFBE358
:100C40000350041201C0E9FF02C0EAFF04C0EFFF35
:100C50000F0145830000000045930F01449309C034
:100C6000E5FFF2CF09F0F29E448100000000000091
:100C70000000000000000000000000000000000074
:100C80000000000000000000000000000000000064
:100C90000000000000000000000000000000000054
:100CA0000000000000000000000000000000000044
:100CB0000000000000000000000000000000000034
:100CC0000000000000000000000000000000000024
:100CD0000000000000000000000000000000000014
:100CE0000000000000000000000000000000000004
:100CF00000000000000000000000000000000000F4
:100D000000000000000000000000449109BEF28EC7
:100D1000E4CF09F0C282010E03012D6F03012C51B3
:100D2000E4CF08F0E4CF07F0E4CF06F0E4CF05F01D
:100D3000E4CF04F0E4CF03F0E4CF02F0E4CF01F01D
:100D4000E4CF00F0120000C0E5FF01C0E5FF02C0E3
:100D5000E5FF03C0E5FF04C0E5FF42EC23F09492F9
:100D60008B92A8EC1FF0F3CF01F0F4CF02F0E9CFA3
:100D700003F0880F0401336F130E0120346F000E4F
:100D80000220356F000E0320366FC2EC15F003EC25
:100D900023F0E56A800EE56E0F0EE56E800EE56EBF
:100DA000000EE56AE56AE4EC11F0060EE126928297
:100DB000800E006E0F0E016E0F0E036E380E0026B1
:100DC00003500122800E026E0F0E036E800E005E35
:100DD0000350015A0F0E046E380E022604500322EF
:100DE0000F0E046E800E025E0450035A02C0E9FF2B
:100DF00003C0EAFFEFCF02F0028200C0E9FF01C0AA
:100E0000EAFF02C0EFFF010EE56EE56E83EC18F01D
:100E1000E652E6529284800E006E0F0E016E0F0EA7
:100E2000036E380E002603500122800E026E0F0E54
:100E3000036E800E005E0350015A0F0E046E380ED2
:100E40000226045003220F0E046E800E025E045030
:100E5000035A02C0E9FF03C0EAFFEFCF02F00284A9
:100E600000C0E9FF01C0EAFF02C0EFFF020EE56E1D
:100E7000E56E83EC18F0E652E6529286800E006E24
:100E80000F0E016E0F0E036E380E00260350012266
:100E9000800E026E0F0E036E800E005E0350015A2C
:100EA0000F0E046E380E0226045003220F0E046E3D
:100EB000800E025E0450035A02C0E9FF03C0EAFF3D
:100EC000EFCF02F0028600C0E9FF01C0EAFF02C0D6
:100ED000EFFF030EE56EE56E83EC18F0E652E65286
:100EE00035EC1CF09380810E006E0F0E016E0F0E1C
:100EF000036E380E0026035001220F0E036E800E83
:100F0000005E0350015A810E026E0F0E036E0F0E2B
:100F1000046E380E0226045003220F0E046E800E5B
:100F2000025E0450035A02C0E9FF03C0EAFFEFCF9C
:100F300002F0029000C0E9FF01C0EAFF02C0EFFF2B
:100F4000E56A800EE56E0F0EE56E810EE56E000E11
:100F5000E56A7CEC1CF0050EE1269384810E006EA0
:100F60000F0E016E0F0E036E380E00260350012285
:100F70000F0E036E800E005E0350015A810E026E4A
:100F80000F0E036E0F0E046E380E0226045003225D
:100F90000F0E046E800E025E0450035A02C0E9FF79
:100FA00003C0EAFFEFCF02F0029400C0E9FF01C0E6
:100FB000EAFF02C0EFFF020EE56E800EE56E0F0E37
:100FC000E56E810EE56E010EE56E7CEC1CF0050E03
:100FD000E1269382810E006E0F0E016E0F0E036EDE
:100FE000380E0026035001220F0E036E800E005EA5
:100FF0000350015A810E026E0F0E036E0F0E046E27
:10100000380E0226045003220F0E046E800E025E7C
:101010000450035A02C0E9FF03C0EAFFEFCF02F019
:10102000029200C0E9FF01C0EAFF02C0EFFF010E1B
:10103000E56E800EE56E0F0EE56E810EE56E020E1A
:10104000E56E7CEC1CF0050EE126938A810E006EA5
:101050000F0E016E0F0E036E380E00260350012294
:101060000F0E036E800E005E0350015A810E026E59
:101070000F0E036E0F0E046E380E0226045003226C
:101080000F0E046E800E025E0450035A02C0E9FF88
:1010900003C0EAFFEFCF02F0029A00C0E9FF01C0EF
:1010A000EAFF02C0EFFF050EE56E800EE56E0F0E43
:1010B000E56E810EE56E030EE56E7CEC1CF0050E10
:1010C000E1269386810E006E0F0E016E0F0E036EE9
:1010D000380E0026035001220F0E036E800E005EB4
:1010E0000350015A810E026E0F0E036E0F0E046E36
:1010F000380E0226045003220F0E046E800E025E8C
:101100000450035A02C0E9FF03C0EAFFEFCF02F028
:10111000029600C0E9FF01C0EAFF02C0EFFF030E24
:10112000E56E800EE56E0F0EE56E810EE56E040E27
:10113000E56E7CEC1CF0050EE1269388810E006EB6
:101140000F0E016E0F0E036E380E002603500122A3
:101150000F0E036E800E005E0350015A810E026E68
:101160000F0E036E0F0E046E380E0226045003227B
:101170000F0E046E800E025E0450035A02C0E9FF97
:1011800003C0EAFFEFCF02F0029800C0E9FF01C000
:10119000EAFF02C0EFFF040EE56E800EE56E0F0E53
:1011A000E56E810EE56E050EE56E7CEC1CF0050E1D
:1011B000E1269494B96AB9800C0EBD6EBD9ABD98B3
:1011C000BE6AE4CF04F0E4CF03F0E4CF02F0E4CF52
:1011D00001F0E4CF00F0120043002563000000C0DE
:1011E000E5FF01C0E5FF02C0E5FF03C0E5FF04C065
:1011F000E5FF05C0E5FF06C0E5FF07C0E5FF08C045
:10120000E5FF09C0E5FF0AC0E5FF0BC0E5FF0CC024
:10121000E5FF006A016A026A040E025CD8B0EBD1F5
:10122000100E015CD8B0E7D1012A03012E2B100E5D
:101230002E5DD8B02E6B2E39E8441F0B036E046A66
:101240005A0E0326030E042203C0E9FF04C0EAFF7E
:10125000EFCF03F02EC304F0070E0416010E056E47
:10126000000E066E045006E0E86CD890053606368F
:10127000010FFCE3076A03500516075006160550D8
:101280000610D880E866D890056A05360550D8A4BF
:10129000C3D703012E51020DF450046EF3CF03F0B7
:1012A000E00E0324056E000E0420066E05C0E9FF63
:1012B00006C0EAFFEECF05F0EFCF06F02BC307F034
:1012C00007A09DD0930E0324076E040E0420086E21
:1012D00007C0E9FF08C0EAFFEECF07F0EFCF08F044
:1012E0000650800FF36E0850800FF35C02E1075048
:1012F000055C03E2056A066A60D0B30E0326040E9D
:10130000042203C0E9FF04C0EAFFEECF03F0EFCFF1
:1013100004F00450800FF36E0650800FF35C02E17E
:101320000550035C04E205683F0E066E46D0075088
:10133000055C096E085006580A6EE86A0ABEFF0E80
:101340000B6EE56E0B50E56E0A50E56E0950E56ECA
:10135000E56AE56A400EE56E000EE56AADEC0EF05A
:10136000096EF3CF0AF0F4CF0BF0E9CF0CF0080EC2
:10137000E1260750035C076E08500458086EE86ABF
:1013800008BEFF0E036EE56E0350E56E0850E56E75
:101390000750E56E0C50E56E0B50E56E0A50E56E99
:1013A0000950E56E07EC13F0036EF3CF04F0080E5E
:1013B000E1260350056E0450066E03012A51800F8A
:1013C000F36E0650800FF35C02E10550295D03E3E4
:1013D000056A066A14D003012951FF08036E3F0E07
:1013E0002A55046E0650800FF36E0450800FF35C94
:1013F00002E10350055C03E305683F0E066E03013E
:101400002E51020DF450046EF3CF03F0590E032653
:10141000040E042203C0E9FF04C0EAFFEECF03F08C
:10142000EFCF04F00350055C036E04500658046EC1
:10143000D88004AED89004E3041E036CD8B4042A08
:10144000022A03012A51800FF36E0450800FF35CCF
:1014500002E10350295DD8B0DFD603012E51020D01
:10146000F450046EF3CF03F0590E0326040E042249
:1014700003C0E9FF04C0EAFF05C0EEFF06C0EFFFAE
:101480002BC303F003A459D02E51020DF450046E67
:10149000F3CF03F0D30E0324076E040E0420086E6E
:1014A00007C0E9FF08C0EAFFEECF09F0EFCF0AF06E
:1014B00009500A10D8B441D0390E0326040E042274
:1014C00003C0E9FF04C0EAFFEECF03F0EFCF04F062
:1014D0000350055C036E04500658046E03101CE0B4
:1014E0000450800F800F02E1010E035C0B6A0B3683
:1014F0000A50800F800F02E1010E095C096A09366B
:101500000B50091809E107C0E9FF08C0EAFF03C052
:10151000EEFF04C0EFFF80D603012E51020DF45000
:10152000046EF3CF03F0D30E0326040E042203C08F
:10153000E9FF04C0EAFFEE6AEF6A2BC303F003A2DF
:1015400046D000500EE100C003F0002A046A2F0EBE
:101550000326030E042203C0E9FF04C0EAFF420E83
:10156000EF6E00C003F00028046E076A2F0E0326FA
:10157000030E072203012E51086E640E082603C0D5
:10158000E9FF07C0EAFF08C0EFFF04C003F0042A28
:10159000076A2F0E0326030E07220650086E03C0AB
:1015A000E9FF07C0EAFF08C0EFFF04C003F004280A
:1015B000006E046A2F0E0326030E04220550076EE8
:1015C00003C0E9FF04C0EAFF07C0EFFF25D62EC322
:1015D00003F00650E56E0550E56EE56A0350E56ED2
:1015E000000EE56E2C0EE56E7E0EE56E01EC1DF034
:1015F000070EE12611D602C001F000501EE02BC3F9
:1016000002F002A21AD000C002F0002A036A2F0ED4
:101610000226030E032202C0E9FF03C0EAFF0A0EFE
:10162000EF6E0050E56E800EE56E030EE56E2F0E38
:10163000E56E45EC16F0040EE1260150E4CF0CF007
:10164000E4CF0BF0E4CF0AF0E4CF09F0E4CF08F0E8
:10165000E4CF07F0E4CF06F0E4CF05F0E4CF04F0E8
:10166000E4CF03F0E4CF02F0E4CF01F0E4CF00F0E8
:101670001200800EE56E040EE56EB30EE56EB8EC5A
:101680001AF0030EE126800EE56E040EE56E930E51
:10169000E56EB8EC1AF0030EE126800EE56E040E3E
:1016A000E56EB50EE56EB8EC1AF0030EE126800E7D
:1016B000E56E040EE56E950EE56EB8EC1AF0030EBD
:1016C000E126800EE56E040EE56EB70EE56EB8EC11
:1016D0001AF0030EE126800EE56E040EE56E970EFD
:1016E000E56EB8EC1AF0030EE126800EE56E040EEE
:1016F000E56EB90EE56EB8EC1AF0030EE126800E29
:10170000E56E040EE56E990EE56EB8EC1AF0030E68
:10171000E126800EE56E040EE56EBB0EE56EB8ECBC
:101720001AF0030EE126800EE56E040EE56E9B0EA8
:10173000E56EB8EC1AF0030EE126800EE56E040E9D
:10174000E56EBD0EE56EB8EC1AF0030EE126800ED4
:10175000E56E040EE56E9D0EE56EB8EC1AF0030E14
:10176000E126800EE56E040EE56EBF0EE56EB8EC68
:101770001AF0030EE126800EE56E040EE56E9F0E54
:10178000E56EB8EC1AF0030EE126800EE56E040E4D
:10179000E56EC10EE56EB8EC1AF0030EE126800E80
:1017A000E56E040EE56EA10EE56EB8EC1AF0030EC0
:1017B000E126800EE56E040EE56EC30EE56EB8EC14
:1017C0001AF0030EE126800EE56E040EE56EA30E00
:1017D000E56EB8EC1AF0030EE126800EE56E040EFD
:1017E000E56EC50EE56EB8EC1AF0030EE126800E2C
:1017F000E56E040EE56EA50EE56EB8EC1AF0030E6C
:10180000E126800EE56E040EE56EC70EE56EB8ECBF
:101810001AF0030EE126800EE56E040EE56EA70EAB
:10182000E56EB8EC1AF0030EE126800EE56E040EAC
:10183000E56EC90EE56EB8EC1AF0030EE126800ED7
:10184000E56E040EE56EA90EE56EB8EC1AF0030E17
:10185000E126800EE56E040EE56ECB0EE56EB8EC6B
:101860001AF0030EE126800EE56E040EE56EAB0E57
:10187000E56EB8EC1AF0030EE126800EE56E040E5C
:10188000E56ECD0EE56EB8EC1AF0030EE126800E83
:10189000E56E040EE56EAD0EE56EB8EC1AF0030EC3
:1018A000E126800EE56E040EE56ECF0EE56EB8EC17
:1018B0001AF0030EE126800EE56E040EE56EAF0E03
:1018C000E56EB8EC1AF0030EE126800EE56E040E0C
:1018D000E56ED10EE56EB8EC1AF0030EE126800E2F
:1018E000E56E040EE56EB10EE56EB8EC1AF0030E6F
:1018F000E126120000C0E5FF01C0E5FF02C0E5FFE0
:1019000003C0E5FF03012551D8B40CD19DA81DD01B
:101910009EA81BD0030168510301661905E1C4ECC0
:1019200022F00301666BFED0000E03016825006EF5
:10193000016A040E012200C0E9FF01C0EAFFEFCFF7
:1019400062F3682B62C3ADFFEDD09DAAEBD09EAAD7
:10195000E9D0ABA205D003016781C4EC22F0E2D04C
:10196000ABA405D003016783C4EC22F0DBD0ABA0AD
:1019700048D0AECF62F326C300F0016A008E62C386
:1019800002F0036A0250001803E10350011801E05D
:1019900004D003016789AB96C5D00301625104E00E
:1019A00062510301261929E103016799AB960301EE
:1019B000625103E00301679702D00301678762C3A6
:1019C0006BF364C36CF303016451006E0004030104
:1019D0006D6F600E03016C25006E016A000E01221E
:1019E00000C0E9FF01C0EAFF62C3EFFF6C2B6C513E
:1019F000800A02E103016C6B95D003016799AB8605
:101A000091D0AECF62F3030167A921D026C300F0C5
:101A1000016A008E62C302F0036A0250001803E1FB
:101A20000350011801E011D09D9AAB9894900301E6
:101A3000665104E1AD6AC4EC22F007D000C4ADFFEA
:101A4000010E0301686F9D886DD0AB866BD00301DA
:101A5000625103016B2703016C5103016D191BE1F6
:101A600003016B510CE16CC364F3030167B712D03F
:101A70009D9AAB989490AD6AC4EC22F00BD0030110
:101A8000678567B707D09D9AAB989490010EAD6EAD
:101A9000C4EC22F047D003016C510301651908E141
:101AA000030165510301641903E0C4EC22F03AD04C
:101AB00064C300F0016A004A012AE56A800EE56EFF
:101AC0000150E56E0050E56E3DEC17F0006E040E1F
:101AD000E12600500301636F03016C190FE162C33B
:101AE00000F01F0E001403016D6F006E020E002443
:101AF0006D6F0301645103016D276D9F6CC300F08E
:101B000003016C2B016A600E0026000E012200C04A
:101B1000E9FF01C0EAFF62C3EFFF6C51800A02E1F6
:101B200003016C6BE4CF03F0E4CF02F0E4CF01F0EB
:101B3000E4CF00F0120000C0E5FF01C0E5FF02C0E5
:101B4000E5FF03C0E5FF04C0E5FF05C0E5FF06C0F3
:101B5000E5FF07C0E5FF08C0E5FF09C0E5FF006A33
:101B6000016A040E015CD8B0E2D03E0E03013C25B0
:101B7000026E036A030E032202C0E9FF03C0EAFFFC
:101B8000EFCF02F00250FF0A01E1CAD003013C3955
:101B9000E8441F0B026E5E0E0224036E046A030EFD
:101BA000042203C0E9FF04C0EAFFEFCF03F03CC307
:101BB00004F0070E0416010E056E000E066E0450AA
:101BC00006E0E86CD89005360636010FFCE3076A9C
:101BD000035005160750061605500610D880E86613
:101BE000D890056A05360550D880E866D890056A11
:101BF00005360550036E046A5C0E0226030E0422AD
:101C000002C0E9FF04C0EAFFEFCF05F03CC306F0D5
:101C1000070E0616010E076E000E086E065006E04F
:101C2000E86CD89007360836010FFCE305C006F0D3
:101C3000096A065007160950081607500810D88080
:101C4000E866D890076A07360750D880E866D890CB
:101C5000076A07360350071801E162D003501FE0FE
:101C600003013C51066E070E0616010E076E065064
:101C70000DE006E6E86CD8900736010FFDE306D0CC
:101C8000D89007BED8800732010FFBE3055007123A
:101C900002C0E9FF04C0EAFF07C0EFFF26D002C080
:101CA000E9FF04C0EAFFEFCF05F003013C51066EE7
:101CB000070E0616010E076E06500DE006E6E86CEC
:101CC000D8900736010FFDE306D0D89007BED88024
:101CD0000732010FFBE3071C066E0550061602C013
:101CE000E9FF04C0EAFF06C0EFFF035003E1036A07
:101CF000032A01D0036A3CC304F0E56A0350E56E91
:101D0000E56A0450E56E000EE56E380EE56EEC0EE9
:101D1000E56E01EC1DF0070EE126012A01C000F07E
:101D200003013C2B100E3C5DD8A01BD73C6B005030
:101D3000E4CF09F0E4CF08F0E4CF07F0E4CF06F0F9
:101D4000E4CF05F0E4CF04F0E4CF03F0E4CF02F0F9
:101D5000E4CF01F0E4CF00F01200D9CFE5FFE1CFEE
:101D6000D9FF00C0E5FF01C0E5FF02C0E5FF03C0E9
:101D7000E5FF04C0E5FF05C0E5FF06C0E5FF07C0BD
:101D8000E5FF020EDBCF00F0030EDBCF01F0040E07
:101D9000DBCF02F0050EDBCF03F0060EDBCF04F045
:101DA000070EDBCF05F0080EDBCF06F0090EDBCF08
:101DB00007F000500401816F0150826F0250836F61
:101DC0000350846F04500401856F0550866F0650E0
:101DD000876F0750886F0401815104018703F4CF96
:101DE00001F0F3CF00F0005004018C6F01508D6FB3
:101DF0000401815104018503F4CF01F0F3CF00F019
:101E0000005004018A6F01508B6F0401845104015A
:101E10008503F3CF00F004018D51002600508D6F33
:101E20000401835104018603F3CF01F00150002621
:101E3000005004018D6F0401835104018503F4CF28
:101E400001F0F3CF00F004018C5100268D510122E6
:101E500000508C6F01508D6F040182510401860384
:101E6000F4CF03F0F3CF02F002500026035001221A
:101E7000005004018C6F01508D6F040182510401E8
:101E80008703F3CF00F000500401916F04018251E9
:101E900004018503F4CF01F0F3CF00F000500401FA
:101EA0008F6F0150906F0401815104018803F3CFBB
:101EB00000F000500301516F0401815104018603B9
:101EC000F4CF01F0F3CF00F0005003014F6F015049
:101ED000506F04018E6B03014E6B04018E5104019F
:101EE0008A25006E04018F5104018B21016E0401CB
:101EF000905104018C21026E0401915104018D2145
:101F0000036E00508A6F01508B6F02508C6F03502C
:101F10008D6F03014E5104018A25006E03014F515C
:101F200004018B21016E0301505104018C21026ECA
:101F30000301515104018D21036E03C0E9FF02C06A
:101F4000F4FF01C0F3FF0050E4CF07F0E4CF06F048
:101F5000E4CF05F0E4CF04F0E4CF03F0E4CF02F0E7
:101F6000E4CF01F0E4CF00F0E4CFD9FF1200D9CFE5
:101F7000E5FFE1CFD9FF00C0E5FF01C0E5FF02C0EA
:101F8000E5FF03C0E5FF04C0E5FF05C0E5FF06C0AF
:101F9000E5FF07C0E5FF08C0E5FF09C0E5FF0AC08F
:101FA000E5FF0BC0E5FF0CC0E5FF0DC0E5FF0EC06F
:101FB000E5FF0FC0E5FF020EDBCF00F0030EDBCF25
:101FC00001F0040EDBCF02F0050EDBCF03F0060EAE
:101FD000DBCF04F0070EDBCF05F0080EDBCF06F0F9
:101FE000200E076E086A06C009F00A6A0B6A0C6ABE
:101FF000E56AE56AE56A0950E56E0350E56E025050
:10200000E56E0150E56E0050E56E47EC11F00D6E87
:10201000080EE126300E0D263A0E0D5C05E30D503C
:102020000E6E270E0E240D6EFF0E07260822000EE0
:1020300007240E6E030E08200F6E0EC0E9FF0FC0BE
:10204000EAFF0DC0EFFF0C50E56E0B50E56E0A5035
:10205000E56E0950E56E0350E56E0250E56E0150E5
:10206000E56E0050E56E07EC13F0006EF3CF01F063
:10207000F4CF02F0E9CF03F0080EE1260050011082
:1020800002100310D8A4AFD707C000F008C001F0B9
:1020900004C002F005C003F000C004F001C005F068
:1020A000004A012A000E0426030E052204C0E9FF9F
:1020B00005C0EAFFEFCF04F002C0E9FF03C0EAFF6A
:1020C00004C0EFFF024A032A000E015C02E1200E69
:1020D000005CE2E302C0E9FF03C0EAFF000EEF6A22
:1020E000E4CF0FF0E4CF0EF0E4CF0DF0E4CF0CF02E
:1020F000E4CF0BF0E4CF0AF0E4CF09F0E4CF08F02E
:10210000E4CF07F0E4CF06F0E4CF05F0E4CF04F02D
:10211000E4CF03F0E4CF02F0E4CF01F0E4CF00F02D
:10212000E4CFD9FF120000C0E5FF01C0E5FF02C007
:10213000E5FF03C0E5FF04C0E5FF05C0E5FF006A59
:102140003E0E0024016E026A030E022201C0E9FF66
:1021500002C0EAFFEFCF01F00150FF0A01E185D094
:1021600001380F0B026E036A800E02260F0E032247
:1021700002C0E9FF03C0EAFFEFCF02F0070E01162D
:10218000010E036E000E046E015006E0E86CD8905C
:1021900003360436010FFCE3056A025003160550AE
:1021A000041603500410D880E866D890036A0336FA
:1021B00003502DE10038E8441F0B016E026A5E0EE9
:1021C0000126030E022201C0E9FF02C0EAFFEFCFA1
:1021D00003F00050046E070E0416010E056E045045
:1021E0000DE006E6E86CD8900536010FFDE306D059
:1021F000D89005BED8800532010FFBE303500512CD
:1022000001C0E9FF02C0EAFF05C0EFFF2ED0003891
:10221000E8441F0B016E026A5E0E0126030E0222C5
:1022200001C0E9FF02C0EAFFEFCF03F00050046EE7
:10223000070E0416010E056E04500DE006E6E86C6C
:10224000D8900536010FFDE306D0D89005BED880A2
:102250000532010FFBE3051C046E0350041601C098
:10226000E9FF02C0EAFF04C0EFFF002A100E005C85
:10227000D8A066D7E4CF05F0E4CF04F0E4CF03F0B4
:10228000E4CF02F0E4CF01F0E4CF00F01200D9CFA8
:10229000E5FFE1CFD9FF00C0E5FF01C0E5FF02C0C7
:1022A000E5FF03C0E5FF04C0E5FF05C0E5FF06C08C
:1022B000E5FF07C0E5FF08C0E5FF09C0E5FF0AC06C
:1022C000E5FF020EDBCF00F0030EDBCF01F0040EC2
:1022D000DBCF02F0050EDBCF03F0060EDBCF04F000
:1022E000070EDBCF05F0080EDBCF06F0090EDBCFC3
:1022F00007F0086A045005100610071005E1E968A8
:10230000F468F368E86847D0096A0750800BE8442E
:102310000A6E0A501BE104500426053606360736BD
:102320000750035C08E10650025C05E10550015CC2
:1023300002E10450005C06E2D89007320632053212
:10234000043204D0092A09C008F0DFD70750035C23
:1023500008E10650025C05E10550015C02E1045011
:10236000005C08E30450005E0550015A0650025A12
:102370000750035AD890073206320532043208C09B
:1023800009F008060950E2E103C0E9FF02C0F4FFCA
:1023900001C0F3FF0050E4CF0AF0E4CF09F0E4CF2E
:1023A00008F0E4CF07F0E4CF06F0E4CF05F0E4CF87
:1023B00004F0E4CF03F0E4CF02F0E4CF01F0E4CF87
:1023C00000F0E4CFD9FF1200D9CFE5FFE1CFD9FF6C
:1023D00000C0E5FF01C0E5FF02C0E5FF03C0E5FF67
:1023E00004C0E5FF05C0E5FF06C0E5FF07C0E5FF47
:1023F00008C0E5FF09C0E5FF0AC0E5FF020EDBCF1C
:1024000000F0030EDBCF01F0040EDBCF02F0050E6F
:10241000DBCF03F0060EDBCF04F0070EDBCF05F0B9
:102420000038E8441F0B066E076A5A0E0626030E94
:10243000072206C0E9FF07C0EAFFEFCF08F000500F
:10244000096E070E0916010E0A6E09500DE006E628
:10245000E86CD8900A36010FFDE306D0D8900ABE8A
:10246000D8800A32010FFBE308500A1206C0E9FFC8
:1024700007C0EAFF0AC0EFFF230E0024066E076ABA
:102480000F0E072206C0E9FF07C0EAFF01C0EFFFF9
:10249000016A230E0026040E0122800E025E070E42
:1024A00002160238F00B036E070E051605500326C0
:1024B00000C0E9FF01C0EAFF03C0EFFFE4CF0AF06C
:1024C000E4CF09F0E4CF08F0E4CF07F0E4CF06F062
:1024D000E4CF05F0E4CF04F0E4CF03F0E4CF02F062
:1024E000E4CF01F0E4CF00F0E4CFD9FF120000C048
:1024F000E5FF01C0E5FF02C0E5FF03C0E5FF030102
:1025000065510301641901E166D065C300F0002A3A
:10251000009E016A600E0026000E012200C0E9FF45
:1025200001C0EAFFEFCF6FF31F0E03016F1765C302
:102530006EF36F5103016E276E51006E020E002480
:102540006E6F6E9FD2EC1FF0006E005003E1006AC8
:10255000002A01D0006AD2EC1FF003016F6F6FC335
:1025600001F0800E01166FC302F01F0E021602C0AA
:1025700003F002C06FF3035003E164C365F33ED080
:1025800000501EE0015025E0D2EC1FF0006E030168
:102590006F51026E02046F6F0050420A1AE0005041
:1025A0004E0A03E1FAEC1DF014D00050460A03E194
:1025B000F8EC22F00ED00050490A0BE1FF0009D0E0
:1025C00065C370F3015003E080EC1DF002D07CEC99
:1025D0001FF06EC365F3030122510301231906E0C6
:1025E0000301665103E1B0EC14F008D094B006D0BA
:1025F0000301665103E1ACB2C4EC22F0E4CF03F076
:10260000E4CF02F0E4CF01F0E4CF00F01200D9CF24
:10261000E5FFE1CFD9FF00C0E5FF01C0E5FF02C043
:10262000E5FF03C0E5FF04C0E5FF05C0E5FF06C008
:10263000E5FF07C0E5FF08C0E5FF09C0E5FF0AC0E8
:10264000E5FF0BC0E5FF0CC0E5FF0DC0E5FF020E86
:10265000DBCF00F0030EDBCF01F0040EDBCF02F086
:10266000050EDBCF03F0060EDBCF04F0070EDBCF49
:1026700005F0080EDBCF06F0090EDBCF07F0086A85
:10268000096A0A6A0B6A200E0C6E0350800BE8443C
:102690000D6E00500026013602360336085008261B
:1026A00009360A360B360D50D8A4088007500B5C4B
:1026B00008E106500A5C05E10550095C02E104509E
:1026C000085C09E30450085E0550095A06500A5A8E
:1026D00007500B5A00800C040D6E0DC00CF00D500D
:1026E000D4E103C0E9FF02C0F4FF01C0F3FF0050D2
:1026F000E4CF0DF0E4CF0CF0E4CF0BF0E4CF0AF020
:10270000E4CF09F0E4CF08F0E4CF07F0E4CF06F01F
:10271000E4CF05F0E4CF04F0E4CF03F0E4CF02F01F
:10272000E4CF01F0E4CF00F0E4CFD9FF120000C005
:10273000E5FF01C0E5FF03C0E5FF04C0E5FF05C0FC
:10274000E5FF06C0E5FF07C0E5FF08C0E5FF09C0DB
:10275000E5FF0AC0E5FF0BC0E5FF58C300F059C311
:1027600001F00301583F01D0592B0050E56EB6EC43
:1027700022F0E652076E046A056A066A58C300F042
:1027800059C301F00301583F01D0592B0050E56EA9
:10279000B6EC22F0E6520B6A0A6E086A0850041280
:1027A00005120A5006120B50071258C300F059C305
:1027B00001F00301583F01D0592B0050E56EB6ECF3
:1027C00022F0E652036E006A03C001F0E86A03BE1D
:1027D000FF0E086E096E00500412015005120850D9
:1027E00006120950071258C300F059C301F0030143
:1027F000583F01D0592B0050E56EB6EC22F0E6525E
:10280000016A0412015005120612071207C0E9FFFF
:1028100006C0F4FF05C0F3FF0450E4CF0BF0E4CF93
:102820000AF0E4CF09F0E4CF08F0E4CF07F0E4CFFA
:1028300006F0E4CF05F0E4CF04F0E4CF03F0E4CFFA
:1028400001F0E4CF00F01200D9CFE5FFE1CFD9FFCE
:1028500000C0E5FF01C0E5FF02C0E5FF03C0E5FFE2
:1028600004C0E5FF05C0E5FF06C0E5FF07C0E5FFC2
:10287000020EDBCF00F0030EDBCF01F0040EDBCF46
:1028800002F0050EDBCF03F002C006F00650046E26
:10289000800A33E100C0E9FF01C0F3FF025052ECAF
:1028A00021F0056EF3CF06F0F4CF07F003C0E5FF8B
:1028B00005C0E9FF06C0F3FF07500EEC23F000C08F
:1028C000E9FF01C0F3FF025052EC21F0056EF3CF97
:1028D00006F0F4CF07F0052A02E3064A072A05C0EE
:1028E000E5FF06C0F4FF07C0F6FF00C0E9FF01C026
:1028F000F3FF0250A7EC22F020D004C000F000AAA1
:102900001CD0007A0050046E04E1035047EC23F021
:1029100014D00450010A04E1035002EC00F00DD081
:1029200004500F0A04E103504CEC1FF006D0045091
:102930000E0A03E1035057EC23F0E4CF07F0E4CF95
:1029400006F0E4CF05F0E4CF04F0E4CF03F0E4CFE9
:1029500002F0E4CF01F0E4CF00F0E4CFD9FF1200A1
:1029600000C0E5FF01C0E5FF02C0E5FF03C0E5FFD1
:10297000ACA277D0DBEC20F0006E005005E1030143
:10298000236B0301226B6DD023C301F0005001269D
:10299000DBEC20F0026E00060250230A1FE1010E5C
:1029A000005CD8A05CD0DBEC20F0036E690A03E188
:1029B0001BEC1FF054D00350720A03E1C4EC22F068
:1029C0004ED00350730A01E04AD09480AB869D8AB2
:1029D0009D98AE50AE50AB98AB8841D00250430AA0
:1029E00005E00250420A01E03AD001D0008E030116
:1029F000686B00C069F300500401006F0301682B8D
:102A000003012351011814E0DBEC20F0006E0301F8
:102A10006927000E03016825026E036A040E032273
:102A200002C0E9FF03C0EAFF00C0EFFF682BE8D750
:102A3000000E03016825006E026A040E02220301E3
:102A4000691D036E032A00C0E9FF02C0EAFF03C04C
:102A5000EFFF0301682B68C366F30301606B01C0DD
:102A600023F3E4CF03F0E4CF02F0E4CF01F0E4CFAE
:102A700000F01200D9CFE5FFE1CFD9FF00C0E5FF9C
:102A800001C0E5FF02C0E5FF03C0E5FF04C0E5FFAC
:102A900005C0E5FF06C0E5FF020EDBCF00F0030E28
:102AA000DBCF01F0040EDBCF02F0050EDBCF03F02D
:102AB00003C004F0056A0350D8B453D000C0E9FF46
:102AC00001C0F3FF025087EC22F0066E430A03E1D7
:102AD000010E056E038E0406002A02E3014A022A53
:102AE0009D9AAB9894909D989EA8FED7AC80AD6AB5
:102AF00000009EA8FED7AC9003C0ADFF00009EA8CA
:102B0000FED7055005E0420EAD6E0324056E05D0DC
:102B1000620EAD6E620E0324056E04C003F0035016
:102B200015E000009EA8FED700C0E9FF01C0F3FF3A
:102B3000025087EC22F0046E04C0ADFF045005265D
:102B40000306002A02E3014A022AE9D700009EA8F0
:102B5000FED7051CAD6EAD2A00009EA8FED7C4ECC2
:102B600022F0E4CF06F0E4CF05F0E4CF04F0E4CFA8
:102B700003F0E4CF02F0E4CF01F0E4CF00F0E4CFC3
:102B8000D9FF120000C0E5FF01C0E5FF02C0E5FF6C
:102B900003C0E5FF04C0E5FF006A5A0E0024016E81
:102BA000026A030E022201C0E9FF02C0EAFFEF6AD7
:102BB000002A020E005CF1E3006A0050020DF4509E
:102BC000026EF3CF01F0E00E0124036E000E02202E
:102BD000046E03C0E9FF04C0EAFFEE6AEF6A390E33
:102BE0000124036E040E0220046E03C0E9FF04C03A
:102BF000EAFFEE6AEF6A590E0124036E040E02200A
:102C0000046E03C0E9FF04C0EAFFEE6AEF6A930EA8
:102C10000124036E040E0220046E03C0E9FF04C009
:102C2000EAFFEE6AEF6AB30E0126040E022201C02B
:102C3000E9FF02C0EAFFEE687F0EEF6E230E00246C
:102C4000016E026A040E022201C0E9FF02C0EAFF1F
:102C5000EF68002A100E005CD8A0AFD7AF0EC06E90
:102C6000C16A010EC26EC282E4CF04F0E4CF03F069
:102C7000E4CF02F0E4CF01F0E4CF00F012004320F3
:102C8000412025642025640A0000D9CFE5FFE1CF6B
:102C9000D9FF00C0E5FF01C0E5FF02C0E5FF03C0AA
:102CA000E5FF04C0E5FF05C0E5FF06C0E5FF07C07E
:102CB000E5FF020EDBCF00F0030EDBCF01F0040EC8
:102CC000DBCF02F0050EDBCF03F023C324F30301B7
:102CD00022510301245F2451046E0404246F03C0B5
:102CE00004F0056A030E0426D8B0052A24C306F0B2
:102CF000076A0750800FF36E0550800FF35C02E106
:102D00000450065C02E2E8682ED0020E035C02E288
:102D1000E86A29D003060350E56E36EC1EF0E65251
:102D2000046A0350045C14E204500024056EE86A4F
:102D30000120066EE86A022005C0E9FF06C0F3FF25
:102D400087EC22F0042AE56E36EC1EF0E652E9D755
:102D500023C324F3030122510301245F2451006E95
:102D60000004246FE86AE4CF07F0E4CF06F0E4CF74
:102D700005F0E4CF04F0E4CF03F0E4CF02F0E4CFB9
:102D800001F0E4CF00F0E4CFD9FF1200D9CFE5FF86
:102D9000E1CFD9FF00C0E5FF01C0E5FF02C0E5FFBC
:102DA00003C0E5FF04C0E5FF05C0E5FF020EDBCF71
:102DB00000F0030EDBCF01F0040EDBCF02F0005079
:102DC000020DF450036EF3CF00F0390E0024046EB0
:102DD000040E0320056E04C0E9FF05C0EAFF01C030
:102DE000EEFF02C0EFFF590E0024046E040E032014
:102DF000056E04C0E9FF05C0EAFFEECF04F0EFCF97
:102E000005F00150045C016E02500558026ED30EAD
:102E10000026040E032200C0E9FF03C0EAFF01C040
:102E2000EEFF02C0EFFFD88002AED89004E3021E8E
:102E3000016CD8B4022A0250800F800F02E1030E09
:102E4000015C02E2016A026A0150021007E100C05F
:102E5000E9FF03C0EAFF000EEE6AEF6AE4CF05F077
:102E6000E4CF04F0E4CF03F0E4CF02F0E4CF01F0CC
:102E7000E4CF00F0E4CFD9FF1200D9CFE5FFE1CFD6
:102E8000D9FF00C0E5FF01C0E5FF02C0E5FF03C0B8
:102E9000E5FF04C0E5FF05C0E5FF06C0E5FF020E43
:102EA000DBCF00F0030EDBCF01F0040EDBCF02F02E
:102EB000050EDBCF03F0D88001AED890046A04364B
:102EC000045007E0011C066E001C056E054A062A28
:102ED00004D000C005F001C006F0D88003AED89041
:102EE00007E3031C016E021C006E004A012A04D095
:102EF00002C000F003C001F00150E56E0050E56E25
:102F00000650E56E0550E56EB8EC19F0006EF3CF93
:102F100001F0040EE12604500AE0011C036E001CBF
:102F2000026E024A032A03C0F3FF025003D001C01D
:102F3000F3FF0050E4CF06F0E4CF05F0E4CF04F057
:102F4000E4CF03F0E4CF02F0E4CF01F0E4CF00F0EF
:102F5000E4CFD9FF1200D9CFE5FFE1CFD9FF00C000
:102F6000E5FF01C0E5FF02C0E5FF03C0E5FF04C0C7
:102F7000E5FF05C0E5FF020EDBCF00F0030EDBCF5F
:102F800001F0040EDBCF02F0050EDBCF03F058C3D7
:102F900004F059C305F00301583F01D0592B0350E9
:102FA000E56E0450E56E97EC20F0E652E65258C309
:102FB00004F059C305F00301583F01D0592B0250CA
:102FC000056EE56E0450E56E97EC20F0E652E65291
:102FD00058C304F059C305F00301583F01D0592BE1
:102FE0000150E56E0450E56E97EC20F0E652E65293
:102FF00058C304F059C305F00301583F01D0592BC1
:103000000050E56E0450E56E97EC20F0E652E65273
:10301000E4CF05F0E4CF04F0E4CF03F0E4CF02F016
:10302000E4CF01F0E4CF00F0E4CFD9FF1200D8CF15
:10303000E5FFE0CFE5FFE56EF3CFE5FFF4CFE5FF79
:10304000E9CFE5FFEACFE5FFFACFE5FFFBCFE5FFEC
:1030500000C0E5FF01C0E5FFF6CFE5FFF6CFE5FFD5
:10306000F7CFE5FFF8CFE5FFF5CFE5FFE1CFE5FFCF
:10307000E2CFE5FF030120510F01356F030121511C
:103080000F01366FD650336FD750346FF2A417D07C
:1030900020C300F021C301F00050010F0301206F95
:1030A000000E0120216FF29420510F01356F0301B2
:1030B00021510F01366FD650336FD750346FE4CFA4
:1030C000E2FFE4CFE1FFE4CFF5FFE4CFF8FFE4CF88
:1030D000F7FFE4CFF6FFE4CFF6FFE4CF01F0E4CF53
:1030E00000F0E4CFFBFFE4CFFAFFE4CFEAFFE4CF48
:1030F000E9FFE4CFF4FFE4CFF3FFE450E4CFE0FFD7
:10310000E4CFD8FF1000D9CFE5FFE1CFD9FF00C051
:10311000E5FF01C0E5FF02C0E5FF03C0E5FF04C015
:10312000E5FF05C0E5FF06C0E5FF020EDBCF00F0BE
:10313000030EDBCF01F00038E8441F0B026E036A78
:103140005A0E0226030E032202C0E9FF03C0EAFF63
:10315000EFCF04F00050056E070E0516010E066E47
:1031600005500DE006E6E86CD8900636010FFDE349
:1031700006D0D89006BED8800632010FFBE304507B
:10318000061202C0E9FF03C0EAFF06C0EFFF230EEC
:103190000024026E036A0F0E032202C0E9FF03C07F
:1031A000EAFF01C0EFFF016A230E0026040E012290
:1031B00000C0E9FF01C0EAFFFF0EEF68E4CF06F0B0
:1031C000E4CF05F0E4CF04F0E4CF03F0E4CF02F065
:1031D000E4CF01F0E4CF00F0E4CFD9FF1200D9CF63
:1031E000E5FFE1CFD9FF00C0E5FF01C0E5FF02C068
:1031F000E5FF03C0E5FF04C0E5FF05C0E5FF06C02D
:10320000E5FF020EDBCF00F0030EDBCF01F0040E72
:10321000DBCF02F00401375119E197EC13F0036E94
:10322000F3CF04F0F4CF05F0E9CF06F003C0E5FFDB
:1032300004C0F4FF05C0F6FF06C0F7FF00C0E9FFB9
:1032400001C0F3FF025076EC22F01ED0040137518A
:10325000010A1AE100C0E9FF01C0F3FF0250BBEC14
:1032600020F0006EF3CF01F0F4CF02F0E9CF03F0CD
:103270000350E56E0250E56E0150E56E0050E56EBC
:10328000ABEC17F0040EE126E4CF06F0E4CF05F036
:10329000E4CF04F0E4CF03F0E4CF02F0E4CF01F098
:1032A000E4CF00F0E4CFD9FF1200D9CFE5FFE1CFA2
:1032B000D9FF00C0E5FF01C0E5FF02C0E5FF03C084
:1032C000E5FF04C0E5FF05C0E5FF06C0E5FF020E0F
:1032D000DBCF00F0030EDBCF01F0040EDBCF02F0FA
:1032E000050EDBCF03F0060EDBCF04F0070EDBCFBD
:1032F00005F0080EDBCF06F0D88003AED89015E3BA
:1033000006500A0A12E104C0E9FF05C0EAFF2D0ECB
:10331000EF6E044A052A031E021E011E006C05E121
:10332000012A03E1022AD8B4032A0650E56E0550AB
:10333000E56E0450E56E0350E56E0250E56E0150F7
:10334000E56E0050E56EB7EC0FF0070EE126E4CF16
:1033500006F0E4CF05F0E4CF04F0E4CF03F0E4CFCF
:1033600002F0E4CF01F0E4CF00F0E4CFD9FF120087
:10337000D9CFE5FFE1CFD9FF00C0E5FF01C0E5FFF0
:1033800002C0E5FF03C0E5FF04C0E5FF05C0E5FF9F
:1033900006C0E5FF020EDBCF00F0030EDBCF01F02D
:1033A000040EDBCF02F0050EDBCF03F0046A056AE2
:1033B0000350800BE844066E065011E102500226CD
:1033C00003360350015C02E10250005C04E2D89035
:1033D0000332023204D0052A05C004F0E9D70350B5
:1033E000015C02E10250005C04E30250005E035005
:1033F000015AD8900332023204C005F00406055089
:10340000EEE101C0F3FF0050E4CF06F0E4CF05F099
:10341000E4CF04F0E4CF03F0E4CF02F0E4CF01F016
:10342000E4CF00F0E4CFD9FF120000C0E5FF01C0F7
:10343000E5FF02C0E5FF03C0E5FF65C300F0016AD8
:1034400070C302F0036A0250005E0350015AE56A3D
:10345000800EE56E0150E56E0050E56E3DEC17F014
:10346000006E040EE126000670C301F0430E4CEC22
:103470001FF0200E4CEC1FF0005020E0600E0124E5
:10348000026E036A000E032202C0E9FF03C0EAFFD6
:10349000EFCF02F0E56A0250E56E000EE56E450ED4
:1034A000E56EA00EE56E01EC1DF0050EE126012A89
:1034B0000150800A01E1016A0006DED7E4CF03F083
:1034C000E4CF02F0E4CF01F0E4CF00F0120000C03E
:1034D000E5FF01C0E5FF02C0E5FF03C0E5FF77ECB3
:1034E00012F00EEC04F093EC10F0A8EC1FF0006E5C
:1034F000F3CF01F0F4CF02F0E9CF03F00401335130
:10350000005E3451015A3551025A3651035A039E16
:103510003F0E035C08E1FF0E025C05E1FF0E015C5B
:1035200002E1FF0E005C1BE2A8EC1FF0F3CF01F0FC
:10353000F4CF02F0E9CF03F0880F0401336F130ECC
:103540000120346F000E0220356F000E0320366F0D
:103550009BEC0DF0006E0050D8B4EFEC08F0E4CF17
:1035600003F0E4CF02F0E4CF01F0E4CF00F012006A
:10357000D9CFE5FFE1CFD9FF00C0E5FF01C0E5FFEE
:1035800002C0E5FF03C0E5FF04C0E5FF020EDBCF8C
:1035900000F0030EDBCF01F0040EDBCF02F00401DC
:1035A000375111E1E7EC1EF0036EF3CF04F003C0D6
:1035B000E5FF04C0F4FF00C0E9FF01C0F3FF0250C3
:1035C000E0EC22F016D004013751010A12E100C0EC
:1035D000E9FF01C0F3FF025011EC22F0006EF3CFBF
:1035E00001F00150E56E0050E56EBDEC1DF0E652B5
:1035F000E652E4CF04F0E4CF03F0E4CF02F0E4CFEE
:1036000001F0E4CF00F0E4CFD9FF1200D9CFE5FFFD
:10361000E1CFD9FF00C0E5FF01C0E5FF02C0E5FF33
:1036200003C0E5FF04C0E5FF020EDBCF00F0003869
:10363000E8441F0B016E026A5E0E0126030E022291
:1036400001C0E9FF02C0EAFFEFCF01F0070E00164C
:10365000010E026E000E036E005006E0E86CD8907A
:1036600002360336010FFCE3046A015002160450CF
:10367000031602500310D880E866D890026A02361A
:103680000250D880E866D890026A02360250E4CF31
:1036900004F0E4CF03F0E4CF02F0E4CF01F0E4CF94
:1036A00000F0E4CFD9FF1200760EF66E460EF76EEC
:1036B000000EF86E0900F550056E0900F550066E13
:1036C00004E1056702D0A1EF1BF00900F550006E80
:1036D0000900F550016E0900F550026E090009005D
:1036E000F550E96E0900F550EA6E0900090009007D
:1036F000F550036E0900F550046E09000900F6CF7D
:1037000007F0F7CF08F0F8CF09F000C0F6FF01C0CE
:10371000F7FF02C0F8FF035002E1045007E0090080
:10372000F550EE6E0306F8E20406F9D707C0F6FF7F
:1037300008C0F7FF09C0F8FF050601E2060660EFC2
:103740001BF01200D9CFE5FFE1CFD9FF00C0E5FFA4
:1037500001C0E5FF02C0E5FF03C0E5FF04C0E5FFCF
:10376000020EDBCF00F00038E8441F0B016E026A46
:103770005A0E0126030E022201C0E9FF02C0EAFF31
:10378000EFCF03F0070E0016010E046E00500DE09F
:1037900006E6E86CD8900436010FFDE306D0D89019
:1037A00004BED8800432010FFBE3041C006E0350FA
:1037B000001601C0E9FF02C0EAFF00C0EFFFE4CF3E
:1037C00004F0E4CF03F0E4CF02F0E4CF01F0E4CF63
:1037D00000F0E4CFD9FF1200D9CFE5FFE1CFD9FF48
:1037E00000C0E5FF01C0E5FF02C0E5FF03C0E5FF43
:1037F00004C0E5FF05C0E5FF020EDBCF00F000507E
:10380000010A22E1016A0150020DF450036EF3CF68
:1038100002F0930E0224046E040E0320056E04C011
:10382000E9FF05C0EAFFEE687F0EEF6EB30E0226D9
:10383000040E032202C0E9FF03C0EAFFEE6AEF6A4A
:10384000012A100E015CDFE300C028F3E4CF05F08D
:10385000E4CF04F0E4CF03F0E4CF02F0E4CF01F0D2
:10386000E4CF00F0E4CFD9FF120000C0E5FF01C0B3
:10387000E5FF02C0E5FF03C0E5FF04C0E5FF006A05
:103880005C0E0024016E026A030E02225E0E00240A
:10389000036E046A030E042203C0E9FF04C0EAFFBA
:1038A000010EEF6E01C0E9FF02C0EAFFEF6E002AD1
:1038B000020E005CE5E3006A3E0E0024016E026A1F
:1038C000030E022201C0E9FF02C0EAFFEF68002AEE
:1038D000100E005CF1E3E4CF04F0E4CF03F0E4CF9A
:1038E00002F0E4CF01F0E4CF00F012004320732097
:1038F00025642025640A0000D9CFE5FFE1CFD9FF78
:1039000000C0E5FF01C0E5FF02C0E5FF03C0E5FF21
:1039100004C0E5FF05C0E5FF020EDBCF00F0030E9B
:10392000DBCF01F0040EDBCF02F0050EDBCF03F09E
:10393000060EDBCF04F0056A3E0E0026030E0522BC
:10394000800E015E070E01160138F00B026E070EA5
:1039500004160450022600C0E9FF05C0EAFF02C0B9
:10396000EFFFE4CF05F0E4CF04F0E4CF03F0E4CFC1
:1039700002F0E4CF01F0E4CF00F0E4CFD9FF120071
:10398000D8CFE5FFE0CFE5FFE56EF3CFE5FFF4CF5D
:10399000E5FFE9CFE5FFEACFE5FFFACFE5FFFBCF93
:1039A000E5FFF6CFE5FFF6CFE5FFF7CFE5FFF8CF70
:1039B000E5FFF5CFE5FFE1CFE5FFE2CFE5FF7AECEC
:1039C0000CF0E4CFE2FFE4CFE1FFE4CFF5FFE4CF7A
:1039D000F8FFE4CFF7FFE4CFF6FFE4CFF6FFE4CF44
:1039E000FBFFE4CFFAFFE4CFEAFFE4CFE9FFE4CF47
:1039F000F4FFE4CFF3FFE450E4CFE0FFE4CFD8FFDF
:103A00001000D9CFE5FFE1CFD9FF00C0E5FF01C02D
:103A1000E5FF02C0E5FF020ED924006E000EDA2099
:103A2000016E800E026E030E0026000E012202229D
:103A30000250E56E0150E56E0050E56E040EDBCFDE
:103A4000E5FF030EDBCFE5FF020EDBCFE5FF040150
:103A50007F51E56E7E51E56E7D51E56E0EEC00F016
:103A6000006EF3CF01F0090EE12601C0F3FF005014
:103A7000E4CF02F0E4CF01F0E4CF00F0E4CFD9FFCF
:103A80001200D9CFE5FFE1CFD9FF00C0E5FF01C0AB
:103A9000E5FF02C0E5FF03C0E5FF020EDBCF00F04B
:103AA000030EDBCF01F0040EDBCF02F0040137512F
:103AB0000DE1E5EC21F0036E03C0E5FF00C0E9FF76
:103AC00001C0F3FF02500EEC23F00FD00401375178
:103AD000010A0BE100C0E9FF01C0F3FF025087ECCF
:103AE00022F0E56E71EC20F0E652E4CF03F0E4CF73
:103AF00002F0E4CF01F0E4CF00F0E4CFD9FF1200F0
:103B000000C0E5FF01C0E5FFD2EC1FF0006E4C0ADB
:103B100008E1D2EC1FF0300A02E08B8229D08B92B0
:103B200027D00050450A24E1000EE56E110EE56E27
:103B3000D80EE56E01EC1DF0030EE12651EC23F0EA
:103B4000006E00C001F0000601500FE0D2EC1FF043
:103B5000E56AE56E000EE56E110EE56EDA0EE56EB5
:103B600001EC1DF0050EE126ECD70A0E4CEC1FF01F
:103B7000E4CF01F0E4CF00F01200D9CFE5FFE1CFB0
:103B8000D9FF00C0E5FF01C0E5FF02C0E5FF03C0AB
:103B9000E5FF020EDBCF00F0030EDBCF01F058C3D0
:103BA00002F059C303F00301583F01D0592B0150D3
:103BB000E56E0250E56E97EC20F0E652E65258C3EF
:103BC00002F059C303F00301583F01D0592B0050B4
:103BD000E56E0250E56E97EC20F0E652E652E4CF37
:103BE00003F0E4CF02F0E4CF01F0E4CF00F0E4CF43
:103BF000D9FF120000C0E5FF01C0E5FF02C0E5FFEC
:103C0000D2EC1FF0006ED2EC1FF0016ED00E002639
:103C10000A0E005C05E30050026EF90E0224006EED
:103C2000D00E01260A0E015C05E30150026EF90E6A
:103C30000224016E080E005C12E2100E015CD8B086
:103C40000ED00038F00B0124006EADEC1EF0016EBA
:103C5000015005E10050E56E87EC21F0E652E4CF1B
:103C600002F0E4CF01F0E4CF00F01200D9CFE5FF7D
:103C7000E1CFD9FF00C0E5FF01C0E5FF02C0E5FFCD
:103C800003C0E5FF04C0E5FF020EDBCF00F022C356
:103C900001F0026A014A022A23C303F0046A0150B8
:103CA000031803E10250041801E001D00ED0000E09
:103CB00003012225016E026A010E022201C0E9FF02
:103CC00002C0EAFF00C0EFFF222BE4CF04F0E4CFF4
:103CD00003F0E4CF02F0E4CF01F0E4CF00F0E4CF52
:103CE000D9FF1200D9CFE5FFE1CFD9FF00C0E5FF32
:103CF00001C0E5FF02C0E5FF03C0E5FF020EDBCF18
:103D000000F0016A70C302F0036A025000260350FB
:103D10000122E56A800EE56E0150E56E0050E56E09
:103D20003DEC17F0006EF3CF01F0040EE126600EBB
:103D30000026000E012200C0E9FF01C0EAFFEFCF1C
:103D400000F00050E4CF03F0E4CF02F0E4CF01F044
:103D5000E4CF00F0E4CFD9FF120000C0E5FF01C0BE
:103D6000E5FF02C0E5FF010E006ED2EC1FF0016E10
:103D700001C002F0015023E00050E56EB6EC22F0E5
:103D8000016EE652015010E10A0E005C0BE20A0ED1
:103D9000006EE56EB6EC22F0016EE652015004E1D1
:103DA000E8680ED0E8680CD00150021802E0E8681C
:103DB00007D0002A1B0E005CD8E3E86801D0E86A4F
:103DC000E4CF02F0E4CF01F0E4CF00F0120000C035
:103DD000E5FF01C0E5FF02C0E5FF03C0E5FF58C3F2
:103DE00000F059C301F00301583F01D0592B005096
:103DF000E56EB6EC22F0E652036E026A58C300F09C
:103E000059C301F00301583F01D0592B0050E56E12
:103E1000B6EC22F0E652016A02120150031203C00E
:103E2000F3FF0250E4CF03F0E4CF02F0E4CF01F05F
:103E3000E4CF00F012000301226B0301236B0301A6
:103E4000246994808B909480B06A3F0EAF6EB886E0
:103E5000AC8AAC84AC8CAC90AB8CAB8E0301676B42
:103E60000301616B0301646B0301656B0301666B06
:103E7000000EE56AB6EC22F00301266FE6529F9829
:103E80009F9A010E0301256F04017D6B7E6B2F0E3F
:103E90007F6FC4EC22F0120000C0E5FF01C0E5FF17
:103EA00002C0E5FF006E000E03012725016E026AC5
:103EB0000F0E022201C0E9FF02C0EAFF00C0EFFFBF
:103EC000220E275DD8A0272B00500A0A0EE103011D
:103ED0002751E56E800EE56E0F0EE56E000EE56E65
:103EE00045EC16F0040EE126276BE4CF02F0E4CF98
:103EF00001F0E4CF00F0120000C0E5FF01C0E5FFD3
:103F000003C0E5FFD2EC1FF0010A1BE1D2EC1FF069
:103F1000006A016ED2EC1FF0036A002603500122F2
:103F2000BD9A0050010BE838F46EBD50EF0BF41051
:103F3000BD6ED89001320032D8900132003200506C
:103F4000BE6EE4CF03F0E4CF01F0E4CF00F0120046
:103F50000301205104017B6F0301215104017C6F97
:103F6000D650796FD7507A6F7B510301201905E144
:103F700004017C51030121190CE0030120510401CB
:103F80007B6F0301215104017C6FD650796FD750AC
:103F90007A6F7CC4E9FF7BC4F4FF7AC4F3FF0401A9
:103FA0007951120000C0E5FF01C0E5FF0301655132
:103FB00003016E1905E0030165510301641902E173
:103FC000E86A15D065C300F00301652B016A600E35
:103FD0000026000E012200C0E9FF01C0EAFFEFCF7A
:103FE00000F06551800A02E10301656B0050E4CFE7
:103FF00001F0E4CF00F0120000C0E5FF4BEC23F02D
:104000000401896B806B8983006A89B3002A0050A0
:10401000010BE844F46E8051FD0BF410806FD58ED7
:10402000D59CD59AD588D596D594D582D580F28A57
:10403000F184D08EF28EF28CBA80FF0EBB68BA8407
:10404000E4CF00F01200D9CFE5FFE1CFD9FF00C0E7
:10405000E5FF01C0E5FF020EDBCF00F00050020DCE
:10406000F450016EF3CF00F0D30E0026040E0122AF
:1040700000C0E9FF01C0EAFFEECF00F0EFCF01F092
:1040800001C0F3FF0050E4CF01F0E4CF00F0E4CF33
:10409000D9FF1200D9CFE5FFE1CFD9FF00C0E5FF7E
:1040A00001C0E5FF020EDBCF00F00050020DF4501E
:1040B000016EF3CF00F0E00E0026000E012200C0DA
:1040C000E9FF01C0EAFFEECF00F0EFCF01F001C041
:1040D000F3FF0050E4CF01F0E4CF00F0E4CFD9FFCC
:1040E0001200D9CFE5FFE1CFD9FF00C0E5FF01C045
:1040F000E5FF02C0E5FF020EDBCF00F058C301F080
:1041000059C302F00301583F01D0592B0050E56E0E
:104110000150E56E97EC20F0E652E652E4CF02F053
:10412000E4CF01F0E4CF00F0E4CFD9FF1200D9CF03
:10413000E5FFE1CFD9FF00C0E5FF020EDBCF00F0C5
:10414000030EDBCFA8FF00C0A9FFA69EA69CA684F5
:10415000F29EF29C550EA76EAA0EA76EA682A6A28C
:1041600002D00000FCD7A694F28EF28CE4CF00F0CF
:10417000E4CFD9FF1200E8AE0AD0F3CFEAFFEE5049
:10418000EECFF3FFEECFF4FFEECFE9FF1200E8BC75
:104190005EEF23F0E9CFF6FFF3CFF7FFF86E0900EB
:1041A000F5500900F5CFF3FF0900F5CFF4FF090042
:1041B000F5CFE9FF120000C0E5FF01C0E5FF0301F4
:1041C00022510301231902E1E86A0FD0000E030116
:1041D0002325006E016A010E012200C0E9FF01C023
:1041E000EAFFEFCF00F0232B0050E4CF01F0E4CF43
:1041F00000F01200F2CFEAFFF29EA69EA69CA684D3
:10420000E9CFA9FFF3CFAAFFE4CFA8FF23EC23F067
:10421000F4CFA8FF23EC23F0F6CFA8FF23EC23F084
:10422000F7CFA8FF23EC23F0A694EABEF28E12008B
:10423000D9CFE5FFE1CFD9FF00C0E5FF01C0E5FF21
:10424000020EDBCF00F0016A3E0E0026030E0122B3
:1042500000C0E9FF01C0EAFFFF0EEF68E4CF01F004
:10426000E4CF00F0E4CFD9FF1200F2CFF6FFF29EC8
:10427000A69EA69CE9CFA9FFF3CFAAFFA680A850CF
:10428000A94AAA2AA680A8CFF3FFA94AAA2AA680EB
:10429000A8CFF4FFA94AAA2AA680A8CFEAFFF6BEB3
:1042A000F28E1200E8AE08D0F3CFEAFFEE50EECF68
:1042B000F3FFEECFF4FF1200E8BC66EF23F0E9CF86
:1042C000F6FFF3CFF7FFF86E0900F5500900F5CFC0
:1042D000F3FF0900F5CFF4FF1200F2CFEAFFF29EE0
:1042E000A69EA69CA684E9CFA9FFF3CFAAFFE4CFA0
:1042F000A8FF23EC23F0F4CFA8FF23EC23F0F6CFA4
:10430000A8FF23EC23F0A694EABEF28E1200D9CFC8
:10431000E5FFE1CFD9FF00C0E5FF020EDBCF00F0E3
:1043200000C026F30050E56E000EE56A97EC20F021
:10433000E652E652E4CF00F0E4CFD9FF1200F2CF0C
:10434000F6FFF29EA69EA69CE9CFA9FFF3CFAAFF97
:10435000A680A850A94AAA2AA680A8CFF3FFA94AF6
:10436000AA2AA680A8CFF4FFF6BEF28E120000C0E3
:10437000E5FF01C0E5FF600E03016525006E016ADF
:10438000000E012200C0E9FF01C0EAFFEFCF00F0FC
:104390000050E4CF01F0E4CF00F01200D9CFE5FFE8
:1043A000E1CFD9FF00C0E5FF020EDBCF00F0610EC8
:1043B000005C05E37B0E005C02E2010E01D0E86ABE
:1043C000E4CF00F0E4CFD9FF120000C0E5FF01C048
:1043D000E5FF58C300F059C301F00301583F01D075
:1043E000592B0050E56EB6EC22F0E652E4CF01F016
:1043F000E4CF00F01200D9CFE5FFE1CFD9FF00C034
:10440000E5FF020EDBCF00F000C025F3005004E111
:10441000C4EC22F09D9A9D98E4CF00F0E4CFD9FF40
:104420001200E8AE06D0F3CFEAFFEE50EECFF3FF76
:104430001200E8BC5CEF23F0E9CFF6FFF3CFF7FF03
:10444000F86E0900F5500900F5CFF3FF1200F2CF26
:10445000EAFFF29EA69EA69CA684E9CFA9FFF3CF11
:10446000AAFFE4CFA8FF23EC23F0F4CFA8FF23ECAE
:1044700023F0A694EABEF28E120012EEFFF022EEB6
:10448000FFF0F86AA68EA69CE9680E0EEA6E006838
:10449000000EED6A0050FDE154EC1BF006EC00F05C
:1044A000FFD7F2CFF6FFF29EA69EA69CE9CFA9FF0A
:1044B000F3CFAAFFA680A850A94AAA2AA680A8CF0F
:1044C000F3FFF6BEF28E1200F2CFEAFFF29EA69E36
:1044D000A69CA684E9CFA9FFF3CFAAFFE4CFA8FF4B
:1044E00023EC23F0A694EABEF28E1200E8AE0BD0C5
:1044F000F3CFEAFFE4CFEEFFF4CFEEFFF6CFEEFF0F
:10450000F7CFEEFF1200E8BC60EF23F01200E8AE38
:1045100004D0F3CFEAFFEE501200E8BC5AEF23F0CC
:10452000E9CFF6FFF3CFF7FFF86E0900F550120060
:1045300000000000FF000000000400020000004234
:104540000000000000000000000000000000E8AED5
:1045500009D0F3CFEAFFE4CFEEFFF4CFEEFFF6CFC2
:10456000EEFF1200E8BC68EF23F01200D9CFE5FFA0
:10457000E1CFD9FF020EDBCFA9FFA69CA69EA680A5
:10458000A850E4CFD9FF1200ACA2FED79480AE5061
:104590000000AE50AB98AB88AB869D8A9D98120008
:1045A00025642000F2CFF6FFF29EA69EA69CE9CFDE
:1045B000A9FFF3CFAAFFA680A850F6BEF28E120084
:1045C000E8AE07D0F3CFEAFFE4CFEEFFF4CFEEFF83
:1045D0001200E8BC64EF23F01200700ED36E9B8CC7
:1045E000FF0E9268936894689668626AF19E120062
:1045F00000C0E5FFADEC1EF0006E005001E1FF00D1
:10460000E4CF00F012000F01456B900E0F01446FD4
:10461000030E0F01436F0F01458F1200E8AE05D066
:10462000F3CFEAFFE4CFEEFF1200E8BC62EF23F025
:104630001200D9CFE5FFE1CFD9FF020EDBCF2BF37C
:10464000E4CFD9FF1200550EA76EAA0EA76EA68260
:10465000A6B2FED7A94AAA2A010E0401376F1C0E82
:104660000301586F596B12000401376B1C0E0301D4
:10467000586F596B12000100304500002003000004
:104680001E000000FCEC1FF01BEC1FF01200ACA29F
:10469000FED7AD6E1200EDEC22F012000301655161
:1046A000120003016F511200030125511200E8CFDF
:1046B0007FFF1200D2EF22F051EF22F035EF21F010
:1046C000FAEF20F064EF22F027EF22F09FEF21F0C5
:0446D0006DEF21F079
:020000040030CA
:010006008574
:00000001FF
